{
  "contractName": "BankExample",
  "abi": [
    {
      "inputs": [],
      "stateMutability": "payable",
      "type": "constructor",
      "payable": true
    },
    {
      "anonymous": false,
      "inputs": [
        {
          "indexed": true,
          "internalType": "address",
          "name": "accountAdd",
          "type": "address"
        },
        {
          "indexed": false,
          "internalType": "uint256",
          "name": "amount",
          "type": "uint256"
        }
      ],
      "name": "LogDepositMade",
      "type": "event"
    },
    {
      "inputs": [],
      "name": "owner",
      "outputs": [
        {
          "internalType": "address",
          "name": "",
          "type": "address"
        }
      ],
      "stateMutability": "view",
      "type": "function",
      "constant": true
    },
    {
      "inputs": [],
      "name": "addAcc",
      "outputs": [
        {
          "internalType": "uint256",
          "name": "",
          "type": "uint256"
        }
      ],
      "stateMutability": "nonpayable",
      "type": "function"
    },
    {
      "inputs": [],
      "name": "deposit",
      "outputs": [
        {
          "internalType": "uint256",
          "name": "",
          "type": "uint256"
        }
      ],
      "stateMutability": "payable",
      "type": "function",
      "payable": true
    },
    {
      "inputs": [
        {
          "internalType": "uint256",
          "name": "withdrawAmount",
          "type": "uint256"
        }
      ],
      "name": "withdraw",
      "outputs": [
        {
          "internalType": "uint256",
          "name": "remainingBal",
          "type": "uint256"
        }
      ],
      "stateMutability": "nonpayable",
      "type": "function"
    },
    {
      "inputs": [],
      "name": "balance",
      "outputs": [
        {
          "internalType": "uint256",
          "name": "",
          "type": "uint256"
        }
      ],
      "stateMutability": "view",
      "type": "function",
      "constant": true
    },
    {
      "inputs": [],
      "name": "depositsBalance",
      "outputs": [
        {
          "internalType": "uint256",
          "name": "",
          "type": "uint256"
        }
      ],
      "stateMutability": "view",
      "type": "function",
      "constant": true
    }
  ],
  "bytecode": "0x6080604052621e84803414610049576040517f08c379a00000000000000000000000000000000000000000000000000000000081526004016100409061012d565b60405180910390fd5b33600260006101000a81548173ffffffffffffffffffffffffffffffffffffffff021916908373ffffffffffffffffffffffffffffffffffffffff16021790555060008060006101000a81548160ff021916908360ff16021790555061014d565b600082825260208201905092915050565b7f496e7469616c20616d6f756e742073686f756c6420626520323030303030302060008201527f5765690000000000000000000000000000000000000000000000000000000000602082015250565b60006101176023836100aa565b9150610122826100bb565b604082019050919050565b600060208201905081810360008301526101468161010a565b9050919050565b6106d88061015c6000396000f3fe6080604052600436106100555760003560e01c8063138fbe711461005a5780632e1a7d4d146100855780638da5cb5b146100c2578063b69ef8a8146100ed578063d0e30db014610118578063e59f209914610136575b600080fd5b34801561006657600080fd5b5061006f610161565b60405161007c91906104d0565b60405180910390f35b34801561009157600080fd5b506100ac60048036038101906100a7919061051c565b610169565b6040516100b991906104d0565b60405180910390f35b3480156100ce57600080fd5b506100d7610296565b6040516100e4919061058a565b60405180910390f35b3480156100f957600080fd5b506101026102bc565b60405161010f91906104d0565b60405180910390f35b610120610303565b60405161012d91906104d0565b60405180910390f35b34801561014257600080fd5b5061014b6103ee565b60405161015891906104d0565b60405180910390f35b600047905090565b6000600160003373ffffffffffffffffffffffffffffffffffffffff1673ffffffffffffffffffffffffffffffffffffffff16815260200190815260200160002054821161024f5781600160003373ffffffffffffffffffffffffffffffffffffffff1673ffffffffffffffffffffffffffffffffffffffff168152602001908152602001600020600082825461020091906105d4565b925050819055503373ffffffffffffffffffffffffffffffffffffffff166108fc839081150290604051600060405180830381858888f1935050505015801561024d573d6000803e3d6000fd5b505b600160003373ffffffffffffffffffffffffffffffffffffffff1673ffffffffffffffffffffffffffffffffffffffff168152602001908152602001600020549050919050565b600260009054906101000a900473ffffffffffffffffffffffffffffffffffffffff1681565b6000600160003373ffffffffffffffffffffffffffffffffffffffff1673ffffffffffffffffffffffffffffffffffffffff16815260200190815260200160002054905090565b600034600160003373ffffffffffffffffffffffffffffffffffffffff1673ffffffffffffffffffffffffffffffffffffffff16815260200190815260200160002060008282546103549190610608565b925050819055503373ffffffffffffffffffffffffffffffffffffffff167fa8126f7572bb1fdeae5b5aa9ec126438b91f658a07873f009d041ae690f3a193346040516103a191906104d0565b60405180910390a2600160003373ffffffffffffffffffffffffffffffffffffffff1673ffffffffffffffffffffffffffffffffffffffff16815260200190815260200160002054905090565b600060016000808282829054906101000a900460ff1661040e919061066b565b92506101000a81548160ff021916908360ff160217905550678ac7230489e80000600160003373ffffffffffffffffffffffffffffffffffffffff1673ffffffffffffffffffffffffffffffffffffffff16815260200190815260200160002081905550600160003373ffffffffffffffffffffffffffffffffffffffff1673ffffffffffffffffffffffffffffffffffffffff16815260200190815260200160002054905090565b6000819050919050565b6104ca816104b7565b82525050565b60006020820190506104e560008301846104c1565b92915050565b600080fd5b6104f9816104b7565b811461050457600080fd5b50565b600081359050610516816104f0565b92915050565b600060208284031215610532576105316104eb565b5b600061054084828501610507565b91505092915050565b600073ffffffffffffffffffffffffffffffffffffffff82169050919050565b600061057482610549565b9050919050565b61058481610569565b82525050565b600060208201905061059f600083018461057b565b92915050565b7f4e487b7100000000000000000000000000000000000000000000000000000000600052601160045260246000fd5b60006105df826104b7565b91506105ea836104b7565b9250828210156105fd576105fc6105a5565b5b828203905092915050565b6000610613826104b7565b915061061e836104b7565b9250827fffffffffffffffffffffffffffffffffffffffffffffffffffffffffffffffff03821115610653576106526105a5565b5b828201905092915050565b600060ff82169050919050565b60006106768261065e565b91506106818361065e565b92508260ff03821115610697576106966105a5565b5b82820190509291505056fea26469706673582212202a1cf29531ed8c9cbde1f5049bce5873d38b2199db1633bf2f749f2265869a2b64736f6c634300080a0033",
  "immutableReferences": {},
  "source": "// SPDX-License-Identifier: MIT\n\npragma solidity ^0.8.0;\n\ncontract BankExample{\n    uint8 private clientCount;\n    mapping (address => uint) private balances;\n    address public owner;\n\n    event LogDepositMade(address indexed accountAdd, uint amount);\n\n    constructor() public payable{\n        require(msg.value == 2000000, \"Intial amount should be 2000000 Wei\");\n        owner = msg.sender;\n        clientCount = 0;\n    }\n\n    function addAcc() public returns (uint){\n        clientCount += 1;\n        balances[msg.sender] = 10 ether;\n\n        return balances[msg.sender];\n    }\n\n    function deposit() public payable returns (uint) {\n        balances[msg.sender] += msg.value;\n        emit LogDepositMade(msg.sender, msg.value);\n        return balances[msg.sender];\n    }\n\n    function withdraw(uint withdrawAmount) public returns (uint remainingBal) {\n        // Check enough balance available, otherwise just return balance\n        if (withdrawAmount <= balances[msg.sender]) {\n            balances[msg.sender] -= withdrawAmount;\n            payable(msg.sender).transfer(withdrawAmount);\n        }\n        return balances[msg.sender];\n    }\n\n    function balance() public view returns (uint) {\n        return balances[msg.sender];\n    }\n\n\n    function depositsBalance() public view returns (uint) {\n        return address(this).balance;\n    }\n}\n",
  "sourcePath": "/Users/mayurnagare/Documents/Mayur/Blockchain/ethdemos/contracts/BankExample.sol",
  "compiler": {
    "name": "solc",
    "version": "0.8.10+commit.fc410830.Emscripten.clang"
  },
  "schemaVersion": "3.4.4",
  "updatedAt": "2022-01-05T17:19:01.963Z",
  "networkType": "ethereum",
  "devdoc": {
    "kind": "dev",
    "methods": {},
    "version": 1
  },
  "userdoc": {
    "kind": "user",
    "methods": {},
    "version": 1
  }
}